{
	"src/RelayerSubscription.sol": {
		"RelayerSubscription": {
			"abi": [
				{
					"inputs": [
						{
							"internalType": "uint256",
							"name": "_subscriptionPrice",
							"type": "uint256"
						}
					],
					"stateMutability": "nonpayable",
					"type": "constructor"
				},
				{
					"inputs": [
						{
							"internalType": "address",
							"name": "owner",
							"type": "address"
						}
					],
					"name": "OwnableInvalidOwner",
					"type": "error"
				},
				{
					"inputs": [
						{
							"internalType": "address",
							"name": "account",
							"type": "address"
						}
					],
					"name": "OwnableUnauthorizedAccount",
					"type": "error"
				},
				{
					"anonymous": false,
					"inputs": [
						{
							"indexed": true,
							"internalType": "string",
							"name": "userId",
							"type": "string"
						},
						{
							"indexed": true,
							"internalType": "uint256",
							"name": "expiry",
							"type": "uint256"
						}
					],
					"name": "NewSubscription",
					"type": "event"
				},
				{
					"anonymous": false,
					"inputs": [
						{
							"indexed": true,
							"internalType": "address",
							"name": "previousOwner",
							"type": "address"
						},
						{
							"indexed": true,
							"internalType": "address",
							"name": "newOwner",
							"type": "address"
						}
					],
					"name": "OwnershipTransferred",
					"type": "event"
				},
				{
					"inputs": [
						{
							"internalType": "string",
							"name": "_userId",
							"type": "string"
						}
					],
					"name": "isSubscribed",
					"outputs": [
						{
							"internalType": "bool",
							"name": "",
							"type": "bool"
						}
					],
					"stateMutability": "view",
					"type": "function"
				},
				{
					"inputs": [],
					"name": "owner",
					"outputs": [
						{
							"internalType": "address",
							"name": "",
							"type": "address"
						}
					],
					"stateMutability": "view",
					"type": "function"
				},
				{
					"inputs": [],
					"name": "renounceOwnership",
					"outputs": [],
					"stateMutability": "nonpayable",
					"type": "function"
				},
				{
					"inputs": [
						{
							"internalType": "uint256",
							"name": "_newPrice",
							"type": "uint256"
						}
					],
					"name": "setSubscriptionPrice",
					"outputs": [],
					"stateMutability": "nonpayable",
					"type": "function"
				},
				{
					"inputs": [
						{
							"internalType": "string",
							"name": "_userId",
							"type": "string"
						}
					],
					"name": "subscribe",
					"outputs": [],
					"stateMutability": "payable",
					"type": "function"
				},
				{
					"inputs": [],
					"name": "subscriptionPrice",
					"outputs": [
						{
							"internalType": "uint256",
							"name": "",
							"type": "uint256"
						}
					],
					"stateMutability": "view",
					"type": "function"
				},
				{
					"inputs": [
						{
							"internalType": "address",
							"name": "newOwner",
							"type": "address"
						}
					],
					"name": "transferOwnership",
					"outputs": [],
					"stateMutability": "nonpayable",
					"type": "function"
				},
				{
					"inputs": [],
					"name": "withdraw",
					"outputs": [],
					"stateMutability": "nonpayable",
					"type": "function"
				}
			],
			"devdoc": {
				"errors": {
					"OwnableInvalidOwner(address)": [
						{
							"details": "The owner is not a valid owner account. (eg. `address(0)`)"
						}
					],
					"OwnableUnauthorizedAccount(address)": [
						{
							"details": "The caller account is not authorized to perform an operation."
						}
					]
				},
				"kind": "dev",
				"methods": {
					"owner()": {
						"details": "Returns the address of the current owner."
					},
					"renounceOwnership()": {
						"details": "Leaves the contract without owner. It will not be possible to call `onlyOwner` functions. Can only be called by the current owner. NOTE: Renouncing ownership will leave the contract without an owner, thereby disabling any functionality that is only available to the owner."
					},
					"transferOwnership(address)": {
						"details": "Transfers ownership of the contract to a new account (`newOwner`). Can only be called by the current owner."
					}
				},
				"version": 1
			},
			"evm": {
				"assembly": "    /* \"src/RelayerSubscription.sol\":112:1372  contract RelayerSubscription is Ownable {... */\n  mstore(0x40, 0xa0)\n    /* \"src/RelayerSubscription.sol\":230:237  30 days */\n  0x278d00\n    /* \"src/RelayerSubscription.sol\":197:237  uint256 immutable SUB_DURATION = 30 days */\n  0x80\n  mstore\n    /* \"src/RelayerSubscription.sol\":414:529  constructor(uint256 _subscriptionPrice) Ownable(msg.sender) {... */\n  callvalue\n  dup1\n  iszero\n  tag_1\n  jumpi\n  0x00\n  dup1\n  revert\ntag_1:\n  pop\n  mload(0x40)\n  sub(codesize, bytecodeSize)\n  dup1\n  bytecodeSize\n  dup4\n  codecopy\n  dup2\n  add\n  0x40\n  dup2\n  swap1\n  mstore\n  tag_2\n  swap2\n  tag_3\n  jump\t// in\ntag_2:\n    /* \"src/RelayerSubscription.sol\":462:472  msg.sender */\n  caller\n  dup1\n    /* \"lib/openzeppelin-contracts/contracts/access/Ownable.sol\":1269:1364  if (initialOwner == address(0)) {... */\n  tag_7\n  jumpi\n    /* \"lib/openzeppelin-contracts/contracts/access/Ownable.sol\":1322:1353  OwnableInvalidOwner(address(0)) */\n  mload(0x40)\n  shl(0xe0, 0x1e4fbdf7)\n  dup2\n  mstore\n    /* \"lib/openzeppelin-contracts/contracts/access/Ownable.sol\":1350:1351  0 */\n  0x00\n    /* \"lib/openzeppelin-contracts/contracts/access/Ownable.sol\":1322:1353  OwnableInvalidOwner(address(0)) */\n  0x04\n  dup3\n  add\n    /* \"#utility.yul\":349:400   */\n  mstore\n    /* \"#utility.yul\":322:340   */\n  0x24\n  add\n    /* \"lib/openzeppelin-contracts/contracts/access/Ownable.sol\":1322:1353  OwnableInvalidOwner(address(0)) */\n  mload(0x40)\n  dup1\n  swap2\n  sub\n  swap1\n  revert\n    /* \"lib/openzeppelin-contracts/contracts/access/Ownable.sol\":1269:1364  if (initialOwner == address(0)) {... */\ntag_7:\n    /* \"lib/openzeppelin-contracts/contracts/access/Ownable.sol\":1373:1405  _transferOwnership(initialOwner) */\n  tag_10\n    /* \"lib/openzeppelin-contracts/contracts/access/Ownable.sol\":1392:1404  initialOwner */\n  dup2\n    /* \"lib/openzeppelin-contracts/contracts/access/Ownable.sol\":1373:1391  _transferOwnership */\n  tag_11\n    /* \"lib/openzeppelin-contracts/contracts/access/Ownable.sol\":1373:1405  _transferOwnership(initialOwner) */\n  jump\t// in\ntag_10:\n  pop\n    /* \"src/RelayerSubscription.sol\":484:501  subscriptionPrice */\n  0x01\n    /* \"src/RelayerSubscription.sol\":484:522  subscriptionPrice = _subscriptionPrice */\n  sstore\n    /* \"src/RelayerSubscription.sol\":112:1372  contract RelayerSubscription is Ownable {... */\n  jump(tag_15)\n    /* \"lib/openzeppelin-contracts/contracts/access/Ownable.sol\":2912:3099  function _transferOwnership(address newOwner) internal virtual {... */\ntag_11:\n    /* \"lib/openzeppelin-contracts/contracts/access/Ownable.sol\":2985:3001  address oldOwner */\n  0x00\n    /* \"lib/openzeppelin-contracts/contracts/access/Ownable.sol\":3004:3010  _owner */\n  dup1\n  sload\n  sub(shl(0xa0, 0x01), 0x01)\n    /* \"lib/openzeppelin-contracts/contracts/access/Ownable.sol\":3020:3037  _owner = newOwner */\n  dup4\n  dup2\n  and\n  not(sub(shl(0xa0, 0x01), 0x01))\n  dup4\n  and\n  dup2\n  or\n  dup5\n  sstore\n    /* \"lib/openzeppelin-contracts/contracts/access/Ownable.sol\":3052:3092  OwnershipTransferred(oldOwner, newOwner) */\n  mload(0x40)\n    /* \"lib/openzeppelin-contracts/contracts/access/Ownable.sol\":3004:3010  _owner */\n  swap2\n  swap1\n  swap3\n  and\n  swap3\n  dup4\n  swap2\n    /* \"lib/openzeppelin-contracts/contracts/access/Ownable.sol\":3052:3092  OwnershipTransferred(oldOwner, newOwner) */\n  0x8be0079c531659141344cd1fd0a4f28419497f9722a3daafe3b4186f6b6457e0\n  swap2\n    /* \"lib/openzeppelin-contracts/contracts/access/Ownable.sol\":2985:3001  address oldOwner */\n  swap1\n    /* \"lib/openzeppelin-contracts/contracts/access/Ownable.sol\":3052:3092  OwnershipTransferred(oldOwner, newOwner) */\n  log3\n    /* \"lib/openzeppelin-contracts/contracts/access/Ownable.sol\":2975:3099  {... */\n  pop\n    /* \"lib/openzeppelin-contracts/contracts/access/Ownable.sol\":2912:3099  function _transferOwnership(address newOwner) internal virtual {... */\n  pop\n  jump\t// out\n    /* \"#utility.yul\":14:198   */\ntag_3:\n    /* \"#utility.yul\":84:90   */\n  0x00\n    /* \"#utility.yul\":137:139   */\n  0x20\n    /* \"#utility.yul\":125:134   */\n  dup3\n    /* \"#utility.yul\":116:123   */\n  dup5\n    /* \"#utility.yul\":112:135   */\n  sub\n    /* \"#utility.yul\":108:140   */\n  slt\n    /* \"#utility.yul\":105:157   */\n  iszero\n  tag_17\n  jumpi\n    /* \"#utility.yul\":153:154   */\n  0x00\n    /* \"#utility.yul\":150:151   */\n  dup1\n    /* \"#utility.yul\":143:155   */\n  revert\n    /* \"#utility.yul\":105:157   */\ntag_17:\n  pop\n    /* \"#utility.yul\":176:192   */\n  mload\n  swap2\n    /* \"#utility.yul\":14:198   */\n  swap1\n  pop\n  jump\t// out\n    /* \"#utility.yul\":203:406   */\ntag_15:\n    /* \"src/RelayerSubscription.sol\":112:1372  contract RelayerSubscription is Ownable {... */\n  mload(0x80)\n  codecopy(0x00, dataOffset(sub_0), dataSize(sub_0))\n  0x00\n  assignImmutable(\"0x911a39fbf665a24ad3b6efc185d4b936bbda1900793ae2f7c00f4d18bdd96685\")\n  return(0x00, dataSize(sub_0))\nstop\n\nsub_0: assembly {\n        /* \"src/RelayerSubscription.sol\":112:1372  contract RelayerSubscription is Ownable {... */\n      mstore(0x40, 0x80)\n      jumpi(tag_1, lt(calldatasize, 0x04))\n      shr(0xe0, calldataload(0x00))\n      dup1\n      0x8da5cb5b\n      gt\n      tag_10\n      jumpi\n      dup1\n      0x8da5cb5b\n      eq\n      tag_6\n      jumpi\n      dup1\n      0xbdc8e54c\n      eq\n      tag_7\n      jumpi\n      dup1\n      0xee9c32be\n      eq\n      tag_8\n      jumpi\n      dup1\n      0xf2fde38b\n      eq\n      tag_9\n      jumpi\n      0x00\n      dup1\n      revert\n    tag_10:\n      dup1\n      0x1a5ee779\n      eq\n      tag_2\n      jumpi\n      dup1\n      0x3ccfd60b\n      eq\n      tag_3\n      jumpi\n      dup1\n      0x507e7888\n      eq\n      tag_4\n      jumpi\n      dup1\n      0x715018a6\n      eq\n      tag_5\n      jumpi\n    tag_1:\n      0x00\n      dup1\n      revert\n        /* \"src/RelayerSubscription.sol\":1084:1198  function setSubscriptionPrice(uint256 _newPrice) external onlyOwner {... */\n    tag_2:\n      callvalue\n      dup1\n      iszero\n      tag_11\n      jumpi\n      0x00\n      dup1\n      revert\n    tag_11:\n      pop\n      tag_12\n      tag_13\n      calldatasize\n      0x04\n      tag_14\n      jump\t// in\n    tag_13:\n      tag_15\n      jump\t// in\n    tag_12:\n      stop\n        /* \"src/RelayerSubscription.sol\":1204:1370  function withdraw() external onlyOwner {... */\n    tag_3:\n      callvalue\n      dup1\n      iszero\n      tag_16\n      jumpi\n      0x00\n      dup1\n      revert\n    tag_16:\n      pop\n      tag_12\n      tag_18\n      jump\t// in\n        /* \"src/RelayerSubscription.sol\":535:895  function subscribe(string calldata _userId) external payable {... */\n    tag_4:\n      tag_12\n      tag_20\n      calldatasize\n      0x04\n      tag_21\n      jump\t// in\n    tag_20:\n      tag_22\n      jump\t// in\n        /* \"lib/openzeppelin-contracts/contracts/access/Ownable.sol\":2293:2394  function renounceOwnership() public virtual onlyOwner {... */\n    tag_5:\n      callvalue\n      dup1\n      iszero\n      tag_23\n      jumpi\n      0x00\n      dup1\n      revert\n    tag_23:\n      pop\n      tag_12\n      tag_25\n      jump\t// in\n        /* \"lib/openzeppelin-contracts/contracts/access/Ownable.sol\":1638:1723  function owner() public view virtual returns (address) {... */\n    tag_6:\n      callvalue\n      dup1\n      iszero\n      tag_26\n      jumpi\n      0x00\n      dup1\n      revert\n    tag_26:\n      pop\n        /* \"lib/openzeppelin-contracts/contracts/access/Ownable.sol\":1684:1691  address */\n      0x00\n        /* \"lib/openzeppelin-contracts/contracts/access/Ownable.sol\":1710:1716  _owner */\n      sload\n        /* \"lib/openzeppelin-contracts/contracts/access/Ownable.sol\":1638:1723  function owner() public view virtual returns (address) {... */\n      mload(0x40)\n      sub(shl(0xa0, 0x01), 0x01)\n        /* \"lib/openzeppelin-contracts/contracts/access/Ownable.sol\":1710:1716  _owner */\n      swap1\n      swap2\n      and\n        /* \"#utility.yul\":942:993   */\n      dup2\n      mstore\n        /* \"#utility.yul\":930:932   */\n      0x20\n        /* \"#utility.yul\":915:933   */\n      add\n        /* \"lib/openzeppelin-contracts/contracts/access/Ownable.sol\":1638:1723  function owner() public view virtual returns (address) {... */\n    tag_29:\n      mload(0x40)\n      dup1\n      swap2\n      sub\n      swap1\n      return\n        /* \"src/RelayerSubscription.sol\":158:190  uint256 public subscriptionPrice */\n    tag_7:\n      callvalue\n      dup1\n      iszero\n      tag_31\n      jumpi\n      0x00\n      dup1\n      revert\n    tag_31:\n      pop\n      tag_32\n      sload(0x01)\n      dup2\n      jump\n    tag_32:\n      mload(0x40)\n        /* \"#utility.yul\":1150:1175   */\n      swap1\n      dup2\n      mstore\n        /* \"#utility.yul\":1138:1140   */\n      0x20\n        /* \"#utility.yul\":1123:1141   */\n      add\n        /* \"src/RelayerSubscription.sol\":158:190  uint256 public subscriptionPrice */\n      tag_29\n        /* \"#utility.yul\":1004:1181   */\n      jump\n        /* \"src/RelayerSubscription.sol\":901:1078  function isSubscribed(string calldata _userId) public view returns (bool) {... */\n    tag_8:\n      callvalue\n      dup1\n      iszero\n      tag_36\n      jumpi\n      0x00\n      dup1\n      revert\n    tag_36:\n      pop\n      tag_37\n      tag_38\n      calldatasize\n      0x04\n      tag_21\n      jump\t// in\n    tag_38:\n      tag_39\n      jump\t// in\n    tag_37:\n      mload(0x40)\n        /* \"#utility.yul\":1351:1365   */\n      swap1\n      iszero\n        /* \"#utility.yul\":1344:1366   */\n      iszero\n        /* \"#utility.yul\":1326:1367   */\n      dup2\n      mstore\n        /* \"#utility.yul\":1314:1316   */\n      0x20\n        /* \"#utility.yul\":1299:1317   */\n      add\n        /* \"src/RelayerSubscription.sol\":901:1078  function isSubscribed(string calldata _userId) public view returns (bool) {... */\n      tag_29\n        /* \"#utility.yul\":1186:1373   */\n      jump\n        /* \"lib/openzeppelin-contracts/contracts/access/Ownable.sol\":2543:2758  function transferOwnership(address newOwner) public virtual onlyOwner {... */\n    tag_9:\n      callvalue\n      dup1\n      iszero\n      tag_42\n      jumpi\n      0x00\n      dup1\n      revert\n    tag_42:\n      pop\n      tag_12\n      tag_44\n      calldatasize\n      0x04\n      tag_45\n      jump\t// in\n    tag_44:\n      tag_46\n      jump\t// in\n        /* \"src/RelayerSubscription.sol\":1084:1198  function setSubscriptionPrice(uint256 _newPrice) external onlyOwner {... */\n    tag_15:\n        /* \"lib/openzeppelin-contracts/contracts/access/Ownable.sol\":1531:1544  _checkOwner() */\n      tag_48\n        /* \"lib/openzeppelin-contracts/contracts/access/Ownable.sol\":1531:1542  _checkOwner */\n      tag_49\n        /* \"lib/openzeppelin-contracts/contracts/access/Ownable.sol\":1531:1544  _checkOwner() */\n      jump\t// in\n    tag_48:\n        /* \"src/RelayerSubscription.sol\":1162:1179  subscriptionPrice */\n      0x01\n        /* \"src/RelayerSubscription.sol\":1162:1191  subscriptionPrice = _newPrice */\n      sstore\n        /* \"src/RelayerSubscription.sol\":1084:1198  function setSubscriptionPrice(uint256 _newPrice) external onlyOwner {... */\n      jump\t// out\n        /* \"src/RelayerSubscription.sol\":1204:1370  function withdraw() external onlyOwner {... */\n    tag_18:\n        /* \"lib/openzeppelin-contracts/contracts/access/Ownable.sol\":1531:1544  _checkOwner() */\n      tag_52\n        /* \"lib/openzeppelin-contracts/contracts/access/Ownable.sol\":1531:1542  _checkOwner */\n      tag_49\n        /* \"lib/openzeppelin-contracts/contracts/access/Ownable.sol\":1531:1544  _checkOwner() */\n      jump\t// in\n    tag_52:\n        /* \"src/RelayerSubscription.sol\":1254:1266  bool success */\n      0x00\n        /* \"lib/openzeppelin-contracts/contracts/access/Ownable.sol\":1710:1716  _owner */\n      dup1\n      sload\n        /* \"src/RelayerSubscription.sol\":1272:1318  owner().call{value: address(this).balance}(\"\") */\n      mload(0x40)\n      sub(shl(0xa0, 0x01), 0x01)\n        /* \"lib/openzeppelin-contracts/contracts/access/Ownable.sol\":1710:1716  _owner */\n      swap1\n      swap2\n      and\n      swap1\n        /* \"src/RelayerSubscription.sol\":1292:1313  address(this).balance */\n      selfbalance\n      swap1\n        /* \"src/RelayerSubscription.sol\":1254:1266  bool success */\n      dup4\n        /* \"src/RelayerSubscription.sol\":1272:1318  owner().call{value: address(this).balance}(\"\") */\n      dup2\n        /* \"src/RelayerSubscription.sol\":1254:1266  bool success */\n      dup2\n        /* \"src/RelayerSubscription.sol\":1272:1318  owner().call{value: address(this).balance}(\"\") */\n      dup2\n        /* \"src/RelayerSubscription.sol\":1292:1313  address(this).balance */\n      dup6\n        /* \"lib/openzeppelin-contracts/contracts/access/Ownable.sol\":1710:1716  _owner */\n      dup8\n        /* \"src/RelayerSubscription.sol\":1272:1318  owner().call{value: address(this).balance}(\"\") */\n      gas\n      call\n      swap3\n      pop\n      pop\n      pop\n      returndatasize\n      dup1\n      0x00\n      dup2\n      eq\n      tag_59\n      jumpi\n      mload(0x40)\n      swap2\n      pop\n      and(add(returndatasize, 0x3f), not(0x1f))\n      dup3\n      add\n      0x40\n      mstore\n      returndatasize\n      dup3\n      mstore\n      returndatasize\n      0x00\n      0x20\n      dup5\n      add\n      returndatacopy\n      jump(tag_58)\n    tag_59:\n      0x60\n      swap2\n      pop\n    tag_58:\n      pop\n        /* \"src/RelayerSubscription.sol\":1253:1318  (bool success, ) = owner().call{value: address(this).balance}(\"\") */\n      pop\n      swap1\n      pop\n        /* \"src/RelayerSubscription.sol\":1336:1343  success */\n      dup1\n        /* \"src/RelayerSubscription.sol\":1328:1363  require(success, \"transfer failed\") */\n      tag_60\n      jumpi\n      mload(0x40)\n      shl(0xe5, 0x461bcd)\n      dup2\n      mstore\n        /* \"#utility.yul\":2081:2083   */\n      0x20\n        /* \"src/RelayerSubscription.sol\":1328:1363  require(success, \"transfer failed\") */\n      0x04\n      dup3\n      add\n        /* \"#utility.yul\":2063:2084   */\n      mstore\n        /* \"#utility.yul\":2120:2122   */\n      0x0f\n        /* \"#utility.yul\":2100:2118   */\n      0x24\n      dup3\n      add\n        /* \"#utility.yul\":2093:2123   */\n      mstore\n      shl(0x8a, 0x1d1c985b9cd9995c8819985a5b1959)\n        /* \"#utility.yul\":2139:2157   */\n      0x44\n      dup3\n      add\n        /* \"#utility.yul\":2132:2177   */\n      mstore\n        /* \"#utility.yul\":2194:2212   */\n      0x64\n      add\n        /* \"src/RelayerSubscription.sol\":1328:1363  require(success, \"transfer failed\") */\n    tag_61:\n      mload(0x40)\n      dup1\n      swap2\n      sub\n      swap1\n      revert\n    tag_60:\n        /* \"src/RelayerSubscription.sol\":1243:1370  {... */\n      pop\n        /* \"src/RelayerSubscription.sol\":1204:1370  function withdraw() external onlyOwner {... */\n      jump\t// out\n        /* \"src/RelayerSubscription.sol\":535:895  function subscribe(string calldata _userId) external payable {... */\n    tag_22:\n        /* \"src/RelayerSubscription.sol\":627:644  subscriptionPrice */\n      sload(0x01)\n        /* \"src/RelayerSubscription.sol\":614:623  msg.value */\n      callvalue\n        /* \"src/RelayerSubscription.sol\":614:644  msg.value == subscriptionPrice */\n      eq\n        /* \"src/RelayerSubscription.sol\":606:668  require(msg.value == subscriptionPrice, \"Invalid amount sent\") */\n      tag_64\n      jumpi\n      mload(0x40)\n      shl(0xe5, 0x461bcd)\n      dup2\n      mstore\n        /* \"#utility.yul\":2425:2427   */\n      0x20\n        /* \"src/RelayerSubscription.sol\":606:668  require(msg.value == subscriptionPrice, \"Invalid amount sent\") */\n      0x04\n      dup3\n      add\n        /* \"#utility.yul\":2407:2428   */\n      mstore\n        /* \"#utility.yul\":2464:2466   */\n      0x13\n        /* \"#utility.yul\":2444:2462   */\n      0x24\n      dup3\n      add\n        /* \"#utility.yul\":2437:2467   */\n      mstore\n      shl(0x6a, 0x125b9d985b1a5908185b5bdd5b9d081cd95b9d)\n        /* \"#utility.yul\":2483:2501   */\n      0x44\n      dup3\n      add\n        /* \"#utility.yul\":2476:2525   */\n      mstore\n        /* \"#utility.yul\":2542:2560   */\n      0x64\n      add\n        /* \"src/RelayerSubscription.sol\":606:668  require(msg.value == subscriptionPrice, \"Invalid amount sent\") */\n      tag_61\n        /* \"#utility.yul\":2223:2566   */\n      jump\n        /* \"src/RelayerSubscription.sol\":606:668  require(msg.value == subscriptionPrice, \"Invalid amount sent\") */\n    tag_64:\n        /* \"src/RelayerSubscription.sol\":687:708  isSubscribed(_userId) */\n      tag_67\n        /* \"src/RelayerSubscription.sol\":700:707  _userId */\n      dup3\n      dup3\n        /* \"src/RelayerSubscription.sol\":687:699  isSubscribed */\n      tag_39\n        /* \"src/RelayerSubscription.sol\":687:708  isSubscribed(_userId) */\n      jump\t// in\n    tag_67:\n        /* \"src/RelayerSubscription.sol\":686:708  !isSubscribed(_userId) */\n      iszero\n        /* \"src/RelayerSubscription.sol\":678:739  require(!isSubscribed(_userId), \"User is already subscribed\") */\n      tag_68\n      jumpi\n      mload(0x40)\n      shl(0xe5, 0x461bcd)\n      dup2\n      mstore\n        /* \"#utility.yul\":2773:2775   */\n      0x20\n        /* \"src/RelayerSubscription.sol\":678:739  require(!isSubscribed(_userId), \"User is already subscribed\") */\n      0x04\n      dup3\n      add\n        /* \"#utility.yul\":2755:2776   */\n      mstore\n        /* \"#utility.yul\":2812:2814   */\n      0x1a\n        /* \"#utility.yul\":2792:2810   */\n      0x24\n      dup3\n      add\n        /* \"#utility.yul\":2785:2815   */\n      mstore\n        /* \"#utility.yul\":2851:2879   */\n      0x5573657220697320616c72656164792073756273637269626564000000000000\n        /* \"#utility.yul\":2831:2849   */\n      0x44\n      dup3\n      add\n        /* \"#utility.yul\":2824:2880   */\n      mstore\n        /* \"#utility.yul\":2897:2915   */\n      0x64\n      add\n        /* \"src/RelayerSubscription.sol\":678:739  require(!isSubscribed(_userId), \"User is already subscribed\") */\n      tag_61\n        /* \"#utility.yul\":2571:2921   */\n      jump\n        /* \"src/RelayerSubscription.sol\":678:739  require(!isSubscribed(_userId), \"User is already subscribed\") */\n    tag_68:\n        /* \"src/RelayerSubscription.sol\":749:763  uint256 expiry */\n      0x00\n        /* \"src/RelayerSubscription.sol\":766:796  block.timestamp + SUB_DURATION */\n      tag_71\n        /* \"src/RelayerSubscription.sol\":784:796  SUB_DURATION */\n      immutable(\"0x911a39fbf665a24ad3b6efc185d4b936bbda1900793ae2f7c00f4d18bdd96685\")\n        /* \"src/RelayerSubscription.sol\":766:781  block.timestamp */\n      timestamp\n        /* \"src/RelayerSubscription.sol\":766:796  block.timestamp + SUB_DURATION */\n      tag_72\n      jump\t// in\n    tag_71:\n        /* \"src/RelayerSubscription.sol\":749:796  uint256 expiry = block.timestamp + SUB_DURATION */\n      swap1\n      pop\n        /* \"src/RelayerSubscription.sol\":835:841  expiry */\n      dup1\n        /* \"src/RelayerSubscription.sol\":806:823  subscriptionInfos */\n      0x02\n        /* \"src/RelayerSubscription.sol\":824:831  _userId */\n      dup5\n      dup5\n        /* \"src/RelayerSubscription.sol\":806:832  subscriptionInfos[_userId] */\n      mload(0x40)\n      tag_73\n      swap3\n      swap2\n      swap1\n      tag_74\n      jump\t// in\n    tag_73:\n      swap1\n      dup2\n      mstore\n      0x20\n      add\n      mload(0x40)\n      dup1\n      swap2\n      sub\n      swap1\n      keccak256\n        /* \"src/RelayerSubscription.sol\":806:841  subscriptionInfos[_userId] = expiry */\n      dup2\n      swap1\n      sstore\n      pop\n        /* \"src/RelayerSubscription.sol\":881:887  expiry */\n      dup1\n        /* \"src/RelayerSubscription.sol\":872:879  _userId */\n      dup4\n      dup4\n        /* \"src/RelayerSubscription.sol\":856:888  NewSubscription(_userId, expiry) */\n      mload(0x40)\n      tag_75\n      swap3\n      swap2\n      swap1\n      tag_74\n      jump\t// in\n    tag_75:\n      mload(0x40)\n      swap1\n      dup2\n      swap1\n      sub\n      dup2\n      keccak256\n      swap1\n      0x46c731fe00969f33592dfb439cbe0dd4655a462556648e4cb6d10290ecc9cbfc\n      swap1\n      0x00\n      swap1\n      log3\n        /* \"src/RelayerSubscription.sol\":596:895  {... */\n      pop\n        /* \"src/RelayerSubscription.sol\":535:895  function subscribe(string calldata _userId) external payable {... */\n      pop\n      pop\n      jump\t// out\n        /* \"lib/openzeppelin-contracts/contracts/access/Ownable.sol\":2293:2394  function renounceOwnership() public virtual onlyOwner {... */\n    tag_25:\n        /* \"lib/openzeppelin-contracts/contracts/access/Ownable.sol\":1531:1544  _checkOwner() */\n      tag_77\n        /* \"lib/openzeppelin-contracts/contracts/access/Ownable.sol\":1531:1542  _checkOwner */\n      tag_49\n        /* \"lib/openzeppelin-contracts/contracts/access/Ownable.sol\":1531:1544  _checkOwner() */\n      jump\t// in\n    tag_77:\n        /* \"lib/openzeppelin-contracts/contracts/access/Ownable.sol\":2357:2387  _transferOwnership(address(0)) */\n      tag_79\n        /* \"lib/openzeppelin-contracts/contracts/access/Ownable.sol\":2384:2385  0 */\n      0x00\n        /* \"lib/openzeppelin-contracts/contracts/access/Ownable.sol\":2357:2375  _transferOwnership */\n      tag_80\n        /* \"lib/openzeppelin-contracts/contracts/access/Ownable.sol\":2357:2387  _transferOwnership(address(0)) */\n      jump\t// in\n    tag_79:\n        /* \"lib/openzeppelin-contracts/contracts/access/Ownable.sol\":2293:2394  function renounceOwnership() public virtual onlyOwner {... */\n      jump\t// out\n        /* \"src/RelayerSubscription.sol\":901:1078  function isSubscribed(string calldata _userId) public view returns (bool) {... */\n    tag_39:\n        /* \"src/RelayerSubscription.sol\":969:973  bool */\n      0x00\n        /* \"src/RelayerSubscription.sol\":985:1000  uint256 subInfo */\n      dup1\n        /* \"src/RelayerSubscription.sol\":1003:1020  subscriptionInfos */\n      0x02\n        /* \"src/RelayerSubscription.sol\":1021:1028  _userId */\n      dup5\n      dup5\n        /* \"src/RelayerSubscription.sol\":1003:1029  subscriptionInfos[_userId] */\n      mload(0x40)\n      tag_83\n      swap3\n      swap2\n      swap1\n      tag_74\n      jump\t// in\n    tag_83:\n      swap1\n      dup2\n      mstore\n      mload(0x40)\n      swap1\n      dup2\n      swap1\n      sub\n      0x20\n      add\n      swap1\n      keccak256\n      sload\n        /* \"src/RelayerSubscription.sol\":1056:1071  block.timestamp */\n      timestamp\n      gt\n        /* \"src/RelayerSubscription.sol\":1046:1071  subInfo < block.timestamp */\n      swap2\n      pop\n      pop\n        /* \"src/RelayerSubscription.sol\":901:1078  function isSubscribed(string calldata _userId) public view returns (bool) {... */\n    tag_82:\n      swap3\n      swap2\n      pop\n      pop\n      jump\t// out\n        /* \"lib/openzeppelin-contracts/contracts/access/Ownable.sol\":2543:2758  function transferOwnership(address newOwner) public virtual onlyOwner {... */\n    tag_46:\n        /* \"lib/openzeppelin-contracts/contracts/access/Ownable.sol\":1531:1544  _checkOwner() */\n      tag_85\n        /* \"lib/openzeppelin-contracts/contracts/access/Ownable.sol\":1531:1542  _checkOwner */\n      tag_49\n        /* \"lib/openzeppelin-contracts/contracts/access/Ownable.sol\":1531:1544  _checkOwner() */\n      jump\t// in\n    tag_85:\n      sub(shl(0xa0, 0x01), 0x01)\n        /* \"lib/openzeppelin-contracts/contracts/access/Ownable.sol\":2627:2649  newOwner == address(0) */\n      dup2\n      and\n        /* \"lib/openzeppelin-contracts/contracts/access/Ownable.sol\":2623:2714  if (newOwner == address(0)) {... */\n      tag_87\n      jumpi\n        /* \"lib/openzeppelin-contracts/contracts/access/Ownable.sol\":2672:2703  OwnableInvalidOwner(address(0)) */\n      mload(0x40)\n      shl(0xe0, 0x1e4fbdf7)\n      dup2\n      mstore\n        /* \"lib/openzeppelin-contracts/contracts/access/Ownable.sol\":2700:2701  0 */\n      0x00\n        /* \"lib/openzeppelin-contracts/contracts/access/Ownable.sol\":2672:2703  OwnableInvalidOwner(address(0)) */\n      0x04\n      dup3\n      add\n        /* \"#utility.yul\":942:993   */\n      mstore\n        /* \"#utility.yul\":915:933   */\n      0x24\n      add\n        /* \"lib/openzeppelin-contracts/contracts/access/Ownable.sol\":2672:2703  OwnableInvalidOwner(address(0)) */\n      tag_61\n        /* \"#utility.yul\":796:999   */\n      jump\n        /* \"lib/openzeppelin-contracts/contracts/access/Ownable.sol\":2623:2714  if (newOwner == address(0)) {... */\n    tag_87:\n        /* \"lib/openzeppelin-contracts/contracts/access/Ownable.sol\":2723:2751  _transferOwnership(newOwner) */\n      tag_60\n        /* \"lib/openzeppelin-contracts/contracts/access/Ownable.sol\":2742:2750  newOwner */\n      dup2\n        /* \"lib/openzeppelin-contracts/contracts/access/Ownable.sol\":2723:2741  _transferOwnership */\n      tag_80\n        /* \"lib/openzeppelin-contracts/contracts/access/Ownable.sol\":2723:2751  _transferOwnership(newOwner) */\n      jump\t// in\n        /* \"lib/openzeppelin-contracts/contracts/access/Ownable.sol\":1796:1958  function _checkOwner() internal view virtual {... */\n    tag_49:\n        /* \"lib/openzeppelin-contracts/contracts/access/Ownable.sol\":1684:1691  address */\n      0x00\n        /* \"lib/openzeppelin-contracts/contracts/access/Ownable.sol\":1710:1716  _owner */\n      sload\n      sub(shl(0xa0, 0x01), 0x01)\n      and\n        /* \"lib/openzeppelin-contracts/contracts/utils/Context.sol\":735:745  msg.sender */\n      caller\n        /* \"lib/openzeppelin-contracts/contracts/access/Ownable.sol\":1855:1878  owner() != _msgSender() */\n      eq\n        /* \"lib/openzeppelin-contracts/contracts/access/Ownable.sol\":1851:1952  if (owner() != _msgSender()) {... */\n      tag_79\n      jumpi\n        /* \"lib/openzeppelin-contracts/contracts/access/Ownable.sol\":1901:1941  OwnableUnauthorizedAccount(_msgSender()) */\n      mload(0x40)\n      shl(0xe0, 0x118cdaa7)\n      dup2\n      mstore\n        /* \"lib/openzeppelin-contracts/contracts/utils/Context.sol\":735:745  msg.sender */\n      caller\n        /* \"lib/openzeppelin-contracts/contracts/access/Ownable.sol\":1901:1941  OwnableUnauthorizedAccount(_msgSender()) */\n      0x04\n      dup3\n      add\n        /* \"#utility.yul\":942:993   */\n      mstore\n        /* \"#utility.yul\":915:933   */\n      0x24\n      add\n        /* \"lib/openzeppelin-contracts/contracts/access/Ownable.sol\":1901:1941  OwnableUnauthorizedAccount(_msgSender()) */\n      tag_61\n        /* \"#utility.yul\":796:999   */\n      jump\n        /* \"lib/openzeppelin-contracts/contracts/access/Ownable.sol\":2912:3099  function _transferOwnership(address newOwner) internal virtual {... */\n    tag_80:\n        /* \"lib/openzeppelin-contracts/contracts/access/Ownable.sol\":2985:3001  address oldOwner */\n      0x00\n        /* \"lib/openzeppelin-contracts/contracts/access/Ownable.sol\":3004:3010  _owner */\n      dup1\n      sload\n      sub(shl(0xa0, 0x01), 0x01)\n        /* \"lib/openzeppelin-contracts/contracts/access/Ownable.sol\":3020:3037  _owner = newOwner */\n      dup4\n      dup2\n      and\n      not(sub(shl(0xa0, 0x01), 0x01))\n      dup4\n      and\n      dup2\n      or\n      dup5\n      sstore\n        /* \"lib/openzeppelin-contracts/contracts/access/Ownable.sol\":3052:3092  OwnershipTransferred(oldOwner, newOwner) */\n      mload(0x40)\n        /* \"lib/openzeppelin-contracts/contracts/access/Ownable.sol\":3004:3010  _owner */\n      swap2\n      swap1\n      swap3\n      and\n      swap3\n      dup4\n      swap2\n        /* \"lib/openzeppelin-contracts/contracts/access/Ownable.sol\":3052:3092  OwnershipTransferred(oldOwner, newOwner) */\n      0x8be0079c531659141344cd1fd0a4f28419497f9722a3daafe3b4186f6b6457e0\n      swap2\n        /* \"lib/openzeppelin-contracts/contracts/access/Ownable.sol\":2985:3001  address oldOwner */\n      swap1\n        /* \"lib/openzeppelin-contracts/contracts/access/Ownable.sol\":3052:3092  OwnershipTransferred(oldOwner, newOwner) */\n      log3\n        /* \"lib/openzeppelin-contracts/contracts/access/Ownable.sol\":2975:3099  {... */\n      pop\n        /* \"lib/openzeppelin-contracts/contracts/access/Ownable.sol\":2912:3099  function _transferOwnership(address newOwner) internal virtual {... */\n      pop\n      jump\t// out\n        /* \"#utility.yul\":14:194   */\n    tag_14:\n        /* \"#utility.yul\":73:79   */\n      0x00\n        /* \"#utility.yul\":126:128   */\n      0x20\n        /* \"#utility.yul\":114:123   */\n      dup3\n        /* \"#utility.yul\":105:112   */\n      dup5\n        /* \"#utility.yul\":101:124   */\n      sub\n        /* \"#utility.yul\":97:129   */\n      slt\n        /* \"#utility.yul\":94:146   */\n      iszero\n      tag_101\n      jumpi\n        /* \"#utility.yul\":142:143   */\n      0x00\n        /* \"#utility.yul\":139:140   */\n      dup1\n        /* \"#utility.yul\":132:144   */\n      revert\n        /* \"#utility.yul\":94:146   */\n    tag_101:\n      pop\n        /* \"#utility.yul\":165:188   */\n      calldataload\n      swap2\n        /* \"#utility.yul\":14:194   */\n      swap1\n      pop\n      jump\t// out\n        /* \"#utility.yul\":199:791   */\n    tag_21:\n        /* \"#utility.yul\":270:276   */\n      0x00\n        /* \"#utility.yul\":278:284   */\n      dup1\n        /* \"#utility.yul\":331:333   */\n      0x20\n        /* \"#utility.yul\":319:328   */\n      dup4\n        /* \"#utility.yul\":310:317   */\n      dup6\n        /* \"#utility.yul\":306:329   */\n      sub\n        /* \"#utility.yul\":302:334   */\n      slt\n        /* \"#utility.yul\":299:351   */\n      iszero\n      tag_103\n      jumpi\n        /* \"#utility.yul\":347:348   */\n      0x00\n        /* \"#utility.yul\":344:345   */\n      dup1\n        /* \"#utility.yul\":337:349   */\n      revert\n        /* \"#utility.yul\":299:351   */\n    tag_103:\n        /* \"#utility.yul\":387:396   */\n      dup3\n        /* \"#utility.yul\":374:397   */\n      calldataload\n        /* \"#utility.yul\":416:434   */\n      0xffffffffffffffff\n        /* \"#utility.yul\":457:459   */\n      dup1\n        /* \"#utility.yul\":449:455   */\n      dup3\n        /* \"#utility.yul\":446:460   */\n      gt\n        /* \"#utility.yul\":443:477   */\n      iszero\n      tag_104\n      jumpi\n        /* \"#utility.yul\":473:474   */\n      0x00\n        /* \"#utility.yul\":470:471   */\n      dup1\n        /* \"#utility.yul\":463:475   */\n      revert\n        /* \"#utility.yul\":443:477   */\n    tag_104:\n        /* \"#utility.yul\":511:517   */\n      dup2\n        /* \"#utility.yul\":500:509   */\n      dup6\n        /* \"#utility.yul\":496:518   */\n      add\n        /* \"#utility.yul\":486:518   */\n      swap2\n      pop\n        /* \"#utility.yul\":556:563   */\n      dup6\n        /* \"#utility.yul\":549:553   */\n      0x1f\n        /* \"#utility.yul\":545:547   */\n      dup4\n        /* \"#utility.yul\":541:554   */\n      add\n        /* \"#utility.yul\":537:564   */\n      slt\n        /* \"#utility.yul\":527:582   */\n      tag_105\n      jumpi\n        /* \"#utility.yul\":578:579   */\n      0x00\n        /* \"#utility.yul\":575:576   */\n      dup1\n        /* \"#utility.yul\":568:580   */\n      revert\n        /* \"#utility.yul\":527:582   */\n    tag_105:\n        /* \"#utility.yul\":618:620   */\n      dup2\n        /* \"#utility.yul\":605:621   */\n      calldataload\n        /* \"#utility.yul\":644:646   */\n      dup2\n        /* \"#utility.yul\":636:642   */\n      dup2\n        /* \"#utility.yul\":633:647   */\n      gt\n        /* \"#utility.yul\":630:664   */\n      iszero\n      tag_106\n      jumpi\n        /* \"#utility.yul\":660:661   */\n      0x00\n        /* \"#utility.yul\":657:658   */\n      dup1\n        /* \"#utility.yul\":650:662   */\n      revert\n        /* \"#utility.yul\":630:664   */\n    tag_106:\n        /* \"#utility.yul\":705:712   */\n      dup7\n        /* \"#utility.yul\":700:702   */\n      0x20\n        /* \"#utility.yul\":691:697   */\n      dup3\n        /* \"#utility.yul\":687:689   */\n      dup6\n        /* \"#utility.yul\":683:698   */\n      add\n        /* \"#utility.yul\":679:703   */\n      add\n        /* \"#utility.yul\":676:713   */\n      gt\n        /* \"#utility.yul\":673:730   */\n      iszero\n      tag_107\n      jumpi\n        /* \"#utility.yul\":726:727   */\n      0x00\n        /* \"#utility.yul\":723:724   */\n      dup1\n        /* \"#utility.yul\":716:728   */\n      revert\n        /* \"#utility.yul\":673:730   */\n    tag_107:\n        /* \"#utility.yul\":757:759   */\n      0x20\n        /* \"#utility.yul\":749:760   */\n      swap3\n      swap1\n      swap3\n      add\n      swap7\n        /* \"#utility.yul\":779:785   */\n      swap2\n      swap6\n      pop\n        /* \"#utility.yul\":199:791   */\n      swap1\n      swap4\n      pop\n      pop\n      pop\n      pop\n      jump\t// out\n        /* \"#utility.yul\":1378:1664   */\n    tag_45:\n        /* \"#utility.yul\":1437:1443   */\n      0x00\n        /* \"#utility.yul\":1490:1492   */\n      0x20\n        /* \"#utility.yul\":1478:1487   */\n      dup3\n        /* \"#utility.yul\":1469:1476   */\n      dup5\n        /* \"#utility.yul\":1465:1488   */\n      sub\n        /* \"#utility.yul\":1461:1493   */\n      slt\n        /* \"#utility.yul\":1458:1510   */\n      iszero\n      tag_112\n      jumpi\n        /* \"#utility.yul\":1506:1507   */\n      0x00\n        /* \"#utility.yul\":1503:1504   */\n      dup1\n        /* \"#utility.yul\":1496:1508   */\n      revert\n        /* \"#utility.yul\":1458:1510   */\n    tag_112:\n        /* \"#utility.yul\":1532:1555   */\n      dup2\n      calldataload\n      sub(shl(0xa0, 0x01), 0x01)\n        /* \"#utility.yul\":1584:1615   */\n      dup2\n      and\n        /* \"#utility.yul\":1574:1616   */\n      dup2\n      eq\n        /* \"#utility.yul\":1564:1634   */\n      tag_113\n      jumpi\n        /* \"#utility.yul\":1630:1631   */\n      0x00\n        /* \"#utility.yul\":1627:1628   */\n      dup1\n        /* \"#utility.yul\":1620:1632   */\n      revert\n        /* \"#utility.yul\":1564:1634   */\n    tag_113:\n        /* \"#utility.yul\":1653:1658   */\n      swap4\n        /* \"#utility.yul\":1378:1664   */\n      swap3\n      pop\n      pop\n      pop\n      jump\t// out\n        /* \"#utility.yul\":2926:3148   */\n    tag_72:\n        /* \"#utility.yul\":2991:3000   */\n      dup1\n      dup3\n      add\n        /* \"#utility.yul\":3012:3022   */\n      dup1\n      dup3\n      gt\n        /* \"#utility.yul\":3009:3142   */\n      iszero\n      tag_82\n      jumpi\n        /* \"#utility.yul\":3064:3074   */\n      0x4e487b71\n        /* \"#utility.yul\":3059:3062   */\n      0xe0\n        /* \"#utility.yul\":3055:3075   */\n      shl\n        /* \"#utility.yul\":3052:3053   */\n      0x00\n        /* \"#utility.yul\":3045:3076   */\n      mstore\n        /* \"#utility.yul\":3099:3103   */\n      0x11\n        /* \"#utility.yul\":3096:3097   */\n      0x04\n        /* \"#utility.yul\":3089:3104   */\n      mstore\n        /* \"#utility.yul\":3127:3131   */\n      0x24\n        /* \"#utility.yul\":3124:3125   */\n      0x00\n        /* \"#utility.yul\":3117:3132   */\n      revert\n        /* \"#utility.yul\":3153:3426   */\n    tag_74:\n        /* \"#utility.yul\":3338:3344   */\n      dup2\n        /* \"#utility.yul\":3330:3336   */\n      dup4\n        /* \"#utility.yul\":3325:3328   */\n      dup3\n        /* \"#utility.yul\":3312:3345   */\n      calldatacopy\n        /* \"#utility.yul\":3294:3297   */\n      0x00\n        /* \"#utility.yul\":3364:3380   */\n      swap2\n      add\n        /* \"#utility.yul\":3389:3402   */\n      swap1\n      dup2\n      mstore\n        /* \"#utility.yul\":3364:3380   */\n      swap2\n        /* \"#utility.yul\":3153:3426   */\n      swap1\n      pop\n      jump\t// out\n\n    auxdata: 0xa2646970667358221220da0366452df28bb3f3edde22292319cd67e5a02523f75fcb469c4c2deacdd0d064736f6c63430008180033\n}\n",
				"bytecode": {
					"linkReferences": {},
					"object": "60a060405262278d00608052348015610016575f80fd5b5060405161064f38038061064f833981016040819052610035916100bb565b338061005a57604051631e4fbdf760e01b81525f600482015260240160405180910390fd5b6100638161006c565b506001556100d2565b5f80546001600160a01b038381166001600160a01b0319831681178455604051919092169283917f8be0079c531659141344cd1fd0a4f28419497f9722a3daafe3b4186f6b6457e09190a35050565b5f602082840312156100cb575f80fd5b5051919050565b6080516105656100ea5f395f6102c801526105655ff3fe608060405260043610610079575f3560e01c80638da5cb5b1161004c5780638da5cb5b146100d9578063bdc8e54c14610104578063ee9c32be14610127578063f2fde38b14610156575f80fd5b80631a5ee7791461007d5780633ccfd60b1461009e578063507e7888146100b2578063715018a6146100c5575b5f80fd5b348015610088575f80fd5b5061009c610097366004610451565b610175565b005b3480156100a9575f80fd5b5061009c610182565b61009c6100c0366004610468565b610224565b3480156100d0575f80fd5b5061009c610359565b3480156100e4575f80fd5b505f546040516001600160a01b0390911681526020015b60405180910390f35b34801561010f575f80fd5b5061011960015481565b6040519081526020016100fb565b348015610132575f80fd5b50610146610141366004610468565b61036c565b60405190151581526020016100fb565b348015610161575f80fd5b5061009c6101703660046104d4565b61039c565b61017d6103d6565b600155565b61018a6103d6565b5f80546040516001600160a01b039091169047908381818185875af1925050503d805f81146101d4576040519150601f19603f3d011682016040523d82523d5f602084013e6101d9565b606091505b50509050806102215760405162461bcd60e51b815260206004820152600f60248201526e1d1c985b9cd9995c8819985a5b1959608a1b60448201526064015b60405180910390fd5b50565b600154341461026b5760405162461bcd60e51b8152602060048201526013602482015272125b9d985b1a5908185b5bdd5b9d081cd95b9d606a1b6044820152606401610218565b610275828261036c565b156102c25760405162461bcd60e51b815260206004820152601a60248201527f5573657220697320616c726561647920737562736372696265640000000000006044820152606401610218565b5f6102ed7f000000000000000000000000000000000000000000000000000000000000000042610501565b90508060028484604051610302929190610520565b908152602001604051809103902081905550808383604051610325929190610520565b604051908190038120907f46c731fe00969f33592dfb439cbe0dd4655a462556648e4cb6d10290ecc9cbfc905f90a3505050565b6103616103d6565b61036a5f610402565b565b5f8060028484604051610380929190610520565b9081526040519081900360200190205442119150505b92915050565b6103a46103d6565b6001600160a01b0381166103cd57604051631e4fbdf760e01b81525f6004820152602401610218565b61022181610402565b5f546001600160a01b0316331461036a5760405163118cdaa760e01b8152336004820152602401610218565b5f80546001600160a01b038381166001600160a01b0319831681178455604051919092169283917f8be0079c531659141344cd1fd0a4f28419497f9722a3daafe3b4186f6b6457e09190a35050565b5f60208284031215610461575f80fd5b5035919050565b5f8060208385031215610479575f80fd5b823567ffffffffffffffff80821115610490575f80fd5b818501915085601f8301126104a3575f80fd5b8135818111156104b1575f80fd5b8660208285010111156104c2575f80fd5b60209290920196919550909350505050565b5f602082840312156104e4575f80fd5b81356001600160a01b03811681146104fa575f80fd5b9392505050565b8082018082111561039657634e487b7160e01b5f52601160045260245ffd5b818382375f910190815291905056fea2646970667358221220da0366452df28bb3f3edde22292319cd67e5a02523f75fcb469c4c2deacdd0d064736f6c63430008180033",
					"opcodes": "PUSH1 0xA0 PUSH1 0x40 MSTORE PUSH3 0x278D00 PUSH1 0x80 MSTORE CALLVALUE DUP1 ISZERO PUSH2 0x16 JUMPI PUSH0 DUP1 REVERT JUMPDEST POP PUSH1 0x40 MLOAD PUSH2 0x64F CODESIZE SUB DUP1 PUSH2 0x64F DUP4 CODECOPY DUP2 ADD PUSH1 0x40 DUP2 SWAP1 MSTORE PUSH2 0x35 SWAP2 PUSH2 0xBB JUMP JUMPDEST CALLER DUP1 PUSH2 0x5A JUMPI PUSH1 0x40 MLOAD PUSH4 0x1E4FBDF7 PUSH1 0xE0 SHL DUP2 MSTORE PUSH0 PUSH1 0x4 DUP3 ADD MSTORE PUSH1 0x24 ADD PUSH1 0x40 MLOAD DUP1 SWAP2 SUB SWAP1 REVERT JUMPDEST PUSH2 0x63 DUP2 PUSH2 0x6C JUMP JUMPDEST POP PUSH1 0x1 SSTORE PUSH2 0xD2 JUMP JUMPDEST PUSH0 DUP1 SLOAD PUSH1 0x1 PUSH1 0x1 PUSH1 0xA0 SHL SUB DUP4 DUP2 AND PUSH1 0x1 PUSH1 0x1 PUSH1 0xA0 SHL SUB NOT DUP4 AND DUP2 OR DUP5 SSTORE PUSH1 0x40 MLOAD SWAP2 SWAP1 SWAP3 AND SWAP3 DUP4 SWAP2 PUSH32 0x8BE0079C531659141344CD1FD0A4F28419497F9722A3DAAFE3B4186F6B6457E0 SWAP2 SWAP1 LOG3 POP POP JUMP JUMPDEST PUSH0 PUSH1 0x20 DUP3 DUP5 SUB SLT ISZERO PUSH2 0xCB JUMPI PUSH0 DUP1 REVERT JUMPDEST POP MLOAD SWAP2 SWAP1 POP JUMP JUMPDEST PUSH1 0x80 MLOAD PUSH2 0x565 PUSH2 0xEA PUSH0 CODECOPY PUSH0 PUSH2 0x2C8 ADD MSTORE PUSH2 0x565 PUSH0 RETURN INVALID PUSH1 0x80 PUSH1 0x40 MSTORE PUSH1 0x4 CALLDATASIZE LT PUSH2 0x79 JUMPI PUSH0 CALLDATALOAD PUSH1 0xE0 SHR DUP1 PUSH4 0x8DA5CB5B GT PUSH2 0x4C JUMPI DUP1 PUSH4 0x8DA5CB5B EQ PUSH2 0xD9 JUMPI DUP1 PUSH4 0xBDC8E54C EQ PUSH2 0x104 JUMPI DUP1 PUSH4 0xEE9C32BE EQ PUSH2 0x127 JUMPI DUP1 PUSH4 0xF2FDE38B EQ PUSH2 0x156 JUMPI PUSH0 DUP1 REVERT JUMPDEST DUP1 PUSH4 0x1A5EE779 EQ PUSH2 0x7D JUMPI DUP1 PUSH4 0x3CCFD60B EQ PUSH2 0x9E JUMPI DUP1 PUSH4 0x507E7888 EQ PUSH2 0xB2 JUMPI DUP1 PUSH4 0x715018A6 EQ PUSH2 0xC5 JUMPI JUMPDEST PUSH0 DUP1 REVERT JUMPDEST CALLVALUE DUP1 ISZERO PUSH2 0x88 JUMPI PUSH0 DUP1 REVERT JUMPDEST POP PUSH2 0x9C PUSH2 0x97 CALLDATASIZE PUSH1 0x4 PUSH2 0x451 JUMP JUMPDEST PUSH2 0x175 JUMP JUMPDEST STOP JUMPDEST CALLVALUE DUP1 ISZERO PUSH2 0xA9 JUMPI PUSH0 DUP1 REVERT JUMPDEST POP PUSH2 0x9C PUSH2 0x182 JUMP JUMPDEST PUSH2 0x9C PUSH2 0xC0 CALLDATASIZE PUSH1 0x4 PUSH2 0x468 JUMP JUMPDEST PUSH2 0x224 JUMP JUMPDEST CALLVALUE DUP1 ISZERO PUSH2 0xD0 JUMPI PUSH0 DUP1 REVERT JUMPDEST POP PUSH2 0x9C PUSH2 0x359 JUMP JUMPDEST CALLVALUE DUP1 ISZERO PUSH2 0xE4 JUMPI PUSH0 DUP1 REVERT JUMPDEST POP PUSH0 SLOAD PUSH1 0x40 MLOAD PUSH1 0x1 PUSH1 0x1 PUSH1 0xA0 SHL SUB SWAP1 SWAP2 AND DUP2 MSTORE PUSH1 0x20 ADD JUMPDEST PUSH1 0x40 MLOAD DUP1 SWAP2 SUB SWAP1 RETURN JUMPDEST CALLVALUE DUP1 ISZERO PUSH2 0x10F JUMPI PUSH0 DUP1 REVERT JUMPDEST POP PUSH2 0x119 PUSH1 0x1 SLOAD DUP2 JUMP JUMPDEST PUSH1 0x40 MLOAD SWAP1 DUP2 MSTORE PUSH1 0x20 ADD PUSH2 0xFB JUMP JUMPDEST CALLVALUE DUP1 ISZERO PUSH2 0x132 JUMPI PUSH0 DUP1 REVERT JUMPDEST POP PUSH2 0x146 PUSH2 0x141 CALLDATASIZE PUSH1 0x4 PUSH2 0x468 JUMP JUMPDEST PUSH2 0x36C JUMP JUMPDEST PUSH1 0x40 MLOAD SWAP1 ISZERO ISZERO DUP2 MSTORE PUSH1 0x20 ADD PUSH2 0xFB JUMP JUMPDEST CALLVALUE DUP1 ISZERO PUSH2 0x161 JUMPI PUSH0 DUP1 REVERT JUMPDEST POP PUSH2 0x9C PUSH2 0x170 CALLDATASIZE PUSH1 0x4 PUSH2 0x4D4 JUMP JUMPDEST PUSH2 0x39C JUMP JUMPDEST PUSH2 0x17D PUSH2 0x3D6 JUMP JUMPDEST PUSH1 0x1 SSTORE JUMP JUMPDEST PUSH2 0x18A PUSH2 0x3D6 JUMP JUMPDEST PUSH0 DUP1 SLOAD PUSH1 0x40 MLOAD PUSH1 0x1 PUSH1 0x1 PUSH1 0xA0 SHL SUB SWAP1 SWAP2 AND SWAP1 SELFBALANCE SWAP1 DUP4 DUP2 DUP2 DUP2 DUP6 DUP8 GAS CALL SWAP3 POP POP POP RETURNDATASIZE DUP1 PUSH0 DUP2 EQ PUSH2 0x1D4 JUMPI PUSH1 0x40 MLOAD SWAP2 POP PUSH1 0x1F NOT PUSH1 0x3F RETURNDATASIZE ADD AND DUP3 ADD PUSH1 0x40 MSTORE RETURNDATASIZE DUP3 MSTORE RETURNDATASIZE PUSH0 PUSH1 0x20 DUP5 ADD RETURNDATACOPY PUSH2 0x1D9 JUMP JUMPDEST PUSH1 0x60 SWAP2 POP JUMPDEST POP POP SWAP1 POP DUP1 PUSH2 0x221 JUMPI PUSH1 0x40 MLOAD PUSH3 0x461BCD PUSH1 0xE5 SHL DUP2 MSTORE PUSH1 0x20 PUSH1 0x4 DUP3 ADD MSTORE PUSH1 0xF PUSH1 0x24 DUP3 ADD MSTORE PUSH15 0x1D1C985B9CD9995C8819985A5B1959 PUSH1 0x8A SHL PUSH1 0x44 DUP3 ADD MSTORE PUSH1 0x64 ADD JUMPDEST PUSH1 0x40 MLOAD DUP1 SWAP2 SUB SWAP1 REVERT JUMPDEST POP JUMP JUMPDEST PUSH1 0x1 SLOAD CALLVALUE EQ PUSH2 0x26B JUMPI PUSH1 0x40 MLOAD PUSH3 0x461BCD PUSH1 0xE5 SHL DUP2 MSTORE PUSH1 0x20 PUSH1 0x4 DUP3 ADD MSTORE PUSH1 0x13 PUSH1 0x24 DUP3 ADD MSTORE PUSH19 0x125B9D985B1A5908185B5BDD5B9D081CD95B9D PUSH1 0x6A SHL PUSH1 0x44 DUP3 ADD MSTORE PUSH1 0x64 ADD PUSH2 0x218 JUMP JUMPDEST PUSH2 0x275 DUP3 DUP3 PUSH2 0x36C JUMP JUMPDEST ISZERO PUSH2 0x2C2 JUMPI PUSH1 0x40 MLOAD PUSH3 0x461BCD PUSH1 0xE5 SHL DUP2 MSTORE PUSH1 0x20 PUSH1 0x4 DUP3 ADD MSTORE PUSH1 0x1A PUSH1 0x24 DUP3 ADD MSTORE PUSH32 0x5573657220697320616C72656164792073756273637269626564000000000000 PUSH1 0x44 DUP3 ADD MSTORE PUSH1 0x64 ADD PUSH2 0x218 JUMP JUMPDEST PUSH0 PUSH2 0x2ED PUSH32 0x0 TIMESTAMP PUSH2 0x501 JUMP JUMPDEST SWAP1 POP DUP1 PUSH1 0x2 DUP5 DUP5 PUSH1 0x40 MLOAD PUSH2 0x302 SWAP3 SWAP2 SWAP1 PUSH2 0x520 JUMP JUMPDEST SWAP1 DUP2 MSTORE PUSH1 0x20 ADD PUSH1 0x40 MLOAD DUP1 SWAP2 SUB SWAP1 KECCAK256 DUP2 SWAP1 SSTORE POP DUP1 DUP4 DUP4 PUSH1 0x40 MLOAD PUSH2 0x325 SWAP3 SWAP2 SWAP1 PUSH2 0x520 JUMP JUMPDEST PUSH1 0x40 MLOAD SWAP1 DUP2 SWAP1 SUB DUP2 KECCAK256 SWAP1 PUSH32 0x46C731FE00969F33592DFB439CBE0DD4655A462556648E4CB6D10290ECC9CBFC SWAP1 PUSH0 SWAP1 LOG3 POP POP POP JUMP JUMPDEST PUSH2 0x361 PUSH2 0x3D6 JUMP JUMPDEST PUSH2 0x36A PUSH0 PUSH2 0x402 JUMP JUMPDEST JUMP JUMPDEST PUSH0 DUP1 PUSH1 0x2 DUP5 DUP5 PUSH1 0x40 MLOAD PUSH2 0x380 SWAP3 SWAP2 SWAP1 PUSH2 0x520 JUMP JUMPDEST SWAP1 DUP2 MSTORE PUSH1 0x40 MLOAD SWAP1 DUP2 SWAP1 SUB PUSH1 0x20 ADD SWAP1 KECCAK256 SLOAD TIMESTAMP GT SWAP2 POP POP JUMPDEST SWAP3 SWAP2 POP POP JUMP JUMPDEST PUSH2 0x3A4 PUSH2 0x3D6 JUMP JUMPDEST PUSH1 0x1 PUSH1 0x1 PUSH1 0xA0 SHL SUB DUP2 AND PUSH2 0x3CD JUMPI PUSH1 0x40 MLOAD PUSH4 0x1E4FBDF7 PUSH1 0xE0 SHL DUP2 MSTORE PUSH0 PUSH1 0x4 DUP3 ADD MSTORE PUSH1 0x24 ADD PUSH2 0x218 JUMP JUMPDEST PUSH2 0x221 DUP2 PUSH2 0x402 JUMP JUMPDEST PUSH0 SLOAD PUSH1 0x1 PUSH1 0x1 PUSH1 0xA0 SHL SUB AND CALLER EQ PUSH2 0x36A JUMPI PUSH1 0x40 MLOAD PUSH4 0x118CDAA7 PUSH1 0xE0 SHL DUP2 MSTORE CALLER PUSH1 0x4 DUP3 ADD MSTORE PUSH1 0x24 ADD PUSH2 0x218 JUMP JUMPDEST PUSH0 DUP1 SLOAD PUSH1 0x1 PUSH1 0x1 PUSH1 0xA0 SHL SUB DUP4 DUP2 AND PUSH1 0x1 PUSH1 0x1 PUSH1 0xA0 SHL SUB NOT DUP4 AND DUP2 OR DUP5 SSTORE PUSH1 0x40 MLOAD SWAP2 SWAP1 SWAP3 AND SWAP3 DUP4 SWAP2 PUSH32 0x8BE0079C531659141344CD1FD0A4F28419497F9722A3DAAFE3B4186F6B6457E0 SWAP2 SWAP1 LOG3 POP POP JUMP JUMPDEST PUSH0 PUSH1 0x20 DUP3 DUP5 SUB SLT ISZERO PUSH2 0x461 JUMPI PUSH0 DUP1 REVERT JUMPDEST POP CALLDATALOAD SWAP2 SWAP1 POP JUMP JUMPDEST PUSH0 DUP1 PUSH1 0x20 DUP4 DUP6 SUB SLT ISZERO PUSH2 0x479 JUMPI PUSH0 DUP1 REVERT JUMPDEST DUP3 CALLDATALOAD PUSH8 0xFFFFFFFFFFFFFFFF DUP1 DUP3 GT ISZERO PUSH2 0x490 JUMPI PUSH0 DUP1 REVERT JUMPDEST DUP2 DUP6 ADD SWAP2 POP DUP6 PUSH1 0x1F DUP4 ADD SLT PUSH2 0x4A3 JUMPI PUSH0 DUP1 REVERT JUMPDEST DUP2 CALLDATALOAD DUP2 DUP2 GT ISZERO PUSH2 0x4B1 JUMPI PUSH0 DUP1 REVERT JUMPDEST DUP7 PUSH1 0x20 DUP3 DUP6 ADD ADD GT ISZERO PUSH2 0x4C2 JUMPI PUSH0 DUP1 REVERT JUMPDEST PUSH1 0x20 SWAP3 SWAP1 SWAP3 ADD SWAP7 SWAP2 SWAP6 POP SWAP1 SWAP4 POP POP POP POP JUMP JUMPDEST PUSH0 PUSH1 0x20 DUP3 DUP5 SUB SLT ISZERO PUSH2 0x4E4 JUMPI PUSH0 DUP1 REVERT JUMPDEST DUP2 CALLDATALOAD PUSH1 0x1 PUSH1 0x1 PUSH1 0xA0 SHL SUB DUP2 AND DUP2 EQ PUSH2 0x4FA JUMPI PUSH0 DUP1 REVERT JUMPDEST SWAP4 SWAP3 POP POP POP JUMP JUMPDEST DUP1 DUP3 ADD DUP1 DUP3 GT ISZERO PUSH2 0x396 JUMPI PUSH4 0x4E487B71 PUSH1 0xE0 SHL PUSH0 MSTORE PUSH1 0x11 PUSH1 0x4 MSTORE PUSH1 0x24 PUSH0 REVERT JUMPDEST DUP2 DUP4 DUP3 CALLDATACOPY PUSH0 SWAP2 ADD SWAP1 DUP2 MSTORE SWAP2 SWAP1 POP JUMP INVALID LOG2 PUSH5 0x6970667358 0x22 SLT KECCAK256 0xDA SUB PUSH7 0x452DF28BB3F3ED 0xDE 0x22 0x29 0x23 NOT 0xCD PUSH8 0xE5A02523F75FCB46 SWAP13 0x4C 0x2D 0xEA 0xCD 0xD0 0xD0 PUSH5 0x736F6C6343 STOP ADDMOD XOR STOP CALLER "
				},
				"gasEstimates": {
					"creation": {
						"codeDepositCost": "276200",
						"executionCost": "infinite",
						"totalCost": "infinite"
					},
					"external": {
						"isSubscribed(string)": "infinite",
						"owner()": "2288",
						"renounceOwnership()": "infinite",
						"setSubscriptionPrice(uint256)": "24486",
						"subscribe(string)": "infinite",
						"subscriptionPrice()": "2316",
						"transferOwnership(address)": "28360",
						"withdraw()": "infinite"
					}
				},
				"methodIdentifiers": {
					"isSubscribed(string)": "ee9c32be",
					"owner()": "8da5cb5b",
					"renounceOwnership()": "715018a6",
					"setSubscriptionPrice(uint256)": "1a5ee779",
					"subscribe(string)": "507e7888",
					"subscriptionPrice()": "bdc8e54c",
					"transferOwnership(address)": "f2fde38b",
					"withdraw()": "3ccfd60b"
				}
			},
			"storageLayout": {
				"storage": [
					{
						"astId": 8,
						"contract": "src/RelayerSubscription.sol:RelayerSubscription",
						"label": "_owner",
						"offset": 0,
						"slot": "0",
						"type": "t_address"
					},
					{
						"astId": 184,
						"contract": "src/RelayerSubscription.sol:RelayerSubscription",
						"label": "subscriptionPrice",
						"offset": 0,
						"slot": "1",
						"type": "t_uint256"
					},
					{
						"astId": 191,
						"contract": "src/RelayerSubscription.sol:RelayerSubscription",
						"label": "subscriptionInfos",
						"offset": 0,
						"slot": "2",
						"type": "t_mapping(t_string_memory_ptr,t_uint256)"
					}
				],
				"types": {
					"t_address": {
						"encoding": "inplace",
						"label": "address",
						"numberOfBytes": "20"
					},
					"t_mapping(t_string_memory_ptr,t_uint256)": {
						"encoding": "mapping",
						"key": "t_string_memory_ptr",
						"label": "mapping(string => uint256)",
						"numberOfBytes": "32",
						"value": "t_uint256"
					},
					"t_string_memory_ptr": {
						"encoding": "bytes",
						"label": "string",
						"numberOfBytes": "32"
					},
					"t_uint256": {
						"encoding": "inplace",
						"label": "uint256",
						"numberOfBytes": "32"
					}
				}
			},
			"userdoc": {
				"kind": "user",
				"methods": {},
				"version": 1
			}
		}
	}
}